:100000000C9434000C9449000C9449000C94490061
:100010000C9449000C9449000C9449000C9449003C
:100020000C9449000C9449000C9449000C9449002C
:100030000C9449000C9449000C9449000C9449001C
:100040000C9449000C9449000C9449000C9449000C
:100050000C9449000C9449000C9449000C944900FC
:100060000C9449000C94490011241FBECFEFD8E036
:10007000DEBFCDBF11E0A0E0B1E0E8E9F1E002C0F1
:1000800005900D92A030B107D9F70E9493000C940F
:10009000CA000C9400008AB1837C8AB98BB18C634E
:1000A0008BB98AB18F738AB98BB18F738BB984B1D5
:1000B0008C7F84B985B18C7F85B90895569A80E18B
:1000C0008A95F1F729B1269526952F7030E056983C
:1000D000579A80E18A95F1F789B15798209A90E173
:1000E0009A95F1F749B190E0880F991F880F991FF1
:1000F000807F9927469546954F70942B822B932BA2
:100100002098219A20E12A95F1F729B130E0322F89
:100110002227330F330F2227307F822B932B2198F6
:100120008095909508950E94C5000E944B00259AE5
:100130000E945E0031E080FF20C0232F2D9A4FEFF8
:1001400059E668E1415050406040E1F700C00000CE
:100150002D984FEF59E668E1415050406040E1F77B
:1001600000C00000215051F72FEF4DE359E421501A
:1001700040405040E1F700C000009695879521E08F
:10018000230F2131A9F2322FD6CF3A98429A3B98C9
:08019000439A0895F894FFCF93
:00000001FF
