:100000000C9447000C945C000C945C000C945C0015
:100010000C945C000C945C000C945C000C945C00F0
:100020000C945C000C945C000C945C000C945C00E0
:100030000C945C000C945C000C945C000C945C00D0
:100040000C945C000C945C000C945C000C945C00C0
:100050000C945C000C945C000C945C000C945C00B0
:100060000C945C000C945C0061015B01EF004201A8
:10007000EF0036011D0117010C01EF00EF00EF004A
:10008000EF00EF00EF00EF00EF000501F800112492
:100090001FBECFEFD8E0DEBFCDBF11E0A0E0B1E0E2
:1000A000EAE5F4E002C005900D92A231B107D9F75C
:1000B0000E94A6000C942B020C9400008AB1837C51
:1000C0008AB98BB18C638BB98AB18F738AB98BB1C2
:1000D0008F738BB984B18C7F84B985B18C7F85B9DE
:1000E0000895569A80E18A95F1F729B126952695CB
:1000F0002F7030E05698579A80E18A95F1F789B1D0
:100100005798209A90E19A95F1F749B190E0880FBD
:10011000991F880F991F807F9927469546954F70A4
:10012000942B822B932B2098219A20E12A95F1F78A
:1001300029B130E0322F2227330F330F2227307FAF
:10014000822B932B21988095909508950E94800191
:100150000E945E00259A11E0D2E0BD2EA12CE12C78
:10016000F12C0E941502811131C01123D1F30E949C
:1001700071006C018E159F0521F1E826F92601E03A
:1001800011E0C1E0D0E00DC02D9AF80180810E94FD
:100190008501CC0FDD1F0F5F1F4FF1E001311F07FD
:1001A00079F09E012E213F21232B99F39E012C21D2
:1001B0003D21232B49F780EF0E9485012D98E5CF43
:1001C000760111E00E941502882379F20E94C30192
:1001D0009927FC01ED5EF109E331F10528F080E09B
:1001E0000E948501A12CC1CFEC5CFF4F0C9425022D
:1001F0008AEF0E9485018AEA0E94850122E0B22EE0
:100200003AEAA32EE12CF12CB2CF8AEF0E948501AD
:100210008A2D0E948501A9CF8AEF0E94850110E0F6
:1002200042E0B42E5AEFA52EE12CF12C9ACF8AEFA2
:100230000E9485016AEFA62EE5CF8AEF0E94850114
:10024000C4EFD1E007C0F5EDFA95F1F70000219772
:10025000209731F00E9415028823A9F30E94C30160
:100260008AEF0E9485017AEFA72E7FCF8AEF0E9446
:1002700085018BEA0E94850183E80E948501E3E8FD
:10028000AE2E73CF8AEF0E948501C4EFD1E007C084
:10029000E5EDEA95F1F700002197209741F10E94E2
:1002A00015028823A9F30E94C301009719F1B82E03
:1002B000FAEFAF2E5ACF8EEE0E948501BEEEAB2E26
:1002C00054CF8AEF0E948501C4EFD1E007C085EDCD
:1002D0008A95F1F700002197209749F00E941502B6
:1002E0008823A9F30E94C301CAEFAC2E3ECF9AEF38
:1002F000A92E3BCF8B2D0E948501AAEFAA2E35CFC8
:100300003A98429A3B98439A08953B9A4398909121
:1003100000019A95F1F73A9A4298909100019A95C6
:10032000F1F731E090E041E011C086953B98439AA7
:100330003427209100012A95F1F73A9A42982091AA
:1003400000012A95F1F79F5F9A3061F03A98429A3E
:100350009830A9F09930A9F080FDE7CF3B9A4398F7
:100360008695E7CF3A98429A80910001982F9A9506
:10037000F1F7982F9A95F1F78A95F1F70895832F61
:10038000EBCF80E0D3CF809100018A95F1F72AE08E
:1003900080E090E096958795339990683A9A4298D4
:1003A000309100013A95F1F73A98429A3091000164
:1003B0003A95F1F7215071F7880F892F881F990B13
:1003C000919528E033990EC03A9A429830910001F5
:1003D0003A95F1F73A98429A309100013A95F1F73F
:1003E000215081F73A9A4298209100012A95F1F71D
:1003F0003A98429A3B9A4398209100012A95F1F746
:100400003A9A4298209100012A95F1F73A98429A37
:100410003B98439A20910001322F3A95F1F7322F01
:100420003A95F1F72A95F1F7089532990CC08CE2CC
:1004300091E003C00197009731F026B12C70243071
:10044000C9F781E0089580E00895EE0FFF1F059041
:0A045000F491E02D0994F894FFCF19
:10045A006A16253D5A1E2E3E4526364649797B7C2C
:02046A004A0046
:00000001FF
